{
  "contractName": "StickMan",
  "abi": [
    {
      "inputs": [],
      "stateMutability": "nonpayable",
      "type": "constructor"
    },
    {
      "anonymous": false,
      "inputs": [
        {
          "indexed": true,
          "internalType": "address",
          "name": "owner",
          "type": "address"
        },
        {
          "indexed": true,
          "internalType": "address",
          "name": "approved",
          "type": "address"
        },
        {
          "indexed": true,
          "internalType": "uint256",
          "name": "tokenId",
          "type": "uint256"
        }
      ],
      "name": "Approval",
      "type": "event"
    },
    {
      "anonymous": false,
      "inputs": [
        {
          "indexed": true,
          "internalType": "address",
          "name": "owner",
          "type": "address"
        },
        {
          "indexed": true,
          "internalType": "address",
          "name": "operator",
          "type": "address"
        },
        {
          "indexed": false,
          "internalType": "bool",
          "name": "approved",
          "type": "bool"
        }
      ],
      "name": "ApprovalForAll",
      "type": "event"
    },
    {
      "anonymous": false,
      "inputs": [
        {
          "indexed": true,
          "internalType": "address",
          "name": "previousOwner",
          "type": "address"
        },
        {
          "indexed": true,
          "internalType": "address",
          "name": "newOwner",
          "type": "address"
        }
      ],
      "name": "OwnershipTransferred",
      "type": "event"
    },
    {
      "anonymous": false,
      "inputs": [
        {
          "indexed": true,
          "internalType": "address",
          "name": "from",
          "type": "address"
        },
        {
          "indexed": true,
          "internalType": "address",
          "name": "to",
          "type": "address"
        },
        {
          "indexed": true,
          "internalType": "uint256",
          "name": "tokenId",
          "type": "uint256"
        }
      ],
      "name": "Transfer",
      "type": "event"
    },
    {
      "inputs": [
        {
          "internalType": "address",
          "name": "to",
          "type": "address"
        },
        {
          "internalType": "uint256",
          "name": "tokenId",
          "type": "uint256"
        }
      ],
      "name": "approve",
      "outputs": [],
      "stateMutability": "nonpayable",
      "type": "function"
    },
    {
      "inputs": [
        {
          "internalType": "address",
          "name": "owner",
          "type": "address"
        }
      ],
      "name": "balanceOf",
      "outputs": [
        {
          "internalType": "uint256",
          "name": "",
          "type": "uint256"
        }
      ],
      "stateMutability": "view",
      "type": "function"
    },
    {
      "inputs": [
        {
          "internalType": "uint256",
          "name": "tokenId",
          "type": "uint256"
        }
      ],
      "name": "getApproved",
      "outputs": [
        {
          "internalType": "address",
          "name": "",
          "type": "address"
        }
      ],
      "stateMutability": "view",
      "type": "function"
    },
    {
      "inputs": [
        {
          "internalType": "address",
          "name": "owner",
          "type": "address"
        },
        {
          "internalType": "address",
          "name": "operator",
          "type": "address"
        }
      ],
      "name": "isApprovedForAll",
      "outputs": [
        {
          "internalType": "bool",
          "name": "",
          "type": "bool"
        }
      ],
      "stateMutability": "view",
      "type": "function"
    },
    {
      "inputs": [],
      "name": "isPublicMintEnabled",
      "outputs": [
        {
          "internalType": "bool",
          "name": "",
          "type": "bool"
        }
      ],
      "stateMutability": "view",
      "type": "function"
    },
    {
      "inputs": [],
      "name": "maxMintAmount",
      "outputs": [
        {
          "internalType": "uint256",
          "name": "",
          "type": "uint256"
        }
      ],
      "stateMutability": "view",
      "type": "function"
    },
    {
      "inputs": [],
      "name": "maxSupply",
      "outputs": [
        {
          "internalType": "uint256",
          "name": "",
          "type": "uint256"
        }
      ],
      "stateMutability": "view",
      "type": "function"
    },
    {
      "inputs": [],
      "name": "mintPrice",
      "outputs": [
        {
          "internalType": "uint256",
          "name": "",
          "type": "uint256"
        }
      ],
      "stateMutability": "view",
      "type": "function"
    },
    {
      "inputs": [],
      "name": "name",
      "outputs": [
        {
          "internalType": "string",
          "name": "",
          "type": "string"
        }
      ],
      "stateMutability": "view",
      "type": "function"
    },
    {
      "inputs": [],
      "name": "owner",
      "outputs": [
        {
          "internalType": "address",
          "name": "",
          "type": "address"
        }
      ],
      "stateMutability": "view",
      "type": "function"
    },
    {
      "inputs": [
        {
          "internalType": "uint256",
          "name": "tokenId",
          "type": "uint256"
        }
      ],
      "name": "ownerOf",
      "outputs": [
        {
          "internalType": "address",
          "name": "",
          "type": "address"
        }
      ],
      "stateMutability": "view",
      "type": "function"
    },
    {
      "inputs": [],
      "name": "renounceOwnership",
      "outputs": [],
      "stateMutability": "nonpayable",
      "type": "function"
    },
    {
      "inputs": [
        {
          "internalType": "address",
          "name": "from",
          "type": "address"
        },
        {
          "internalType": "address",
          "name": "to",
          "type": "address"
        },
        {
          "internalType": "uint256",
          "name": "tokenId",
          "type": "uint256"
        }
      ],
      "name": "safeTransferFrom",
      "outputs": [],
      "stateMutability": "nonpayable",
      "type": "function"
    },
    {
      "inputs": [
        {
          "internalType": "address",
          "name": "from",
          "type": "address"
        },
        {
          "internalType": "address",
          "name": "to",
          "type": "address"
        },
        {
          "internalType": "uint256",
          "name": "tokenId",
          "type": "uint256"
        },
        {
          "internalType": "bytes",
          "name": "_data",
          "type": "bytes"
        }
      ],
      "name": "safeTransferFrom",
      "outputs": [],
      "stateMutability": "nonpayable",
      "type": "function"
    },
    {
      "inputs": [
        {
          "internalType": "address",
          "name": "operator",
          "type": "address"
        },
        {
          "internalType": "bool",
          "name": "approved",
          "type": "bool"
        }
      ],
      "name": "setApprovalForAll",
      "outputs": [],
      "stateMutability": "nonpayable",
      "type": "function"
    },
    {
      "inputs": [
        {
          "internalType": "bytes4",
          "name": "interfaceId",
          "type": "bytes4"
        }
      ],
      "name": "supportsInterface",
      "outputs": [
        {
          "internalType": "bool",
          "name": "",
          "type": "bool"
        }
      ],
      "stateMutability": "view",
      "type": "function"
    },
    {
      "inputs": [],
      "name": "symbol",
      "outputs": [
        {
          "internalType": "string",
          "name": "",
          "type": "string"
        }
      ],
      "stateMutability": "view",
      "type": "function"
    },
    {
      "inputs": [
        {
          "internalType": "uint256",
          "name": "index",
          "type": "uint256"
        }
      ],
      "name": "tokenByIndex",
      "outputs": [
        {
          "internalType": "uint256",
          "name": "",
          "type": "uint256"
        }
      ],
      "stateMutability": "view",
      "type": "function"
    },
    {
      "inputs": [
        {
          "internalType": "address",
          "name": "owner",
          "type": "address"
        },
        {
          "internalType": "uint256",
          "name": "index",
          "type": "uint256"
        }
      ],
      "name": "tokenOfOwnerByIndex",
      "outputs": [
        {
          "internalType": "uint256",
          "name": "",
          "type": "uint256"
        }
      ],
      "stateMutability": "view",
      "type": "function"
    },
    {
      "inputs": [],
      "name": "totalCurrentSupply",
      "outputs": [
        {
          "internalType": "uint256",
          "name": "",
          "type": "uint256"
        }
      ],
      "stateMutability": "view",
      "type": "function"
    },
    {
      "inputs": [],
      "name": "totalSupply",
      "outputs": [
        {
          "internalType": "uint256",
          "name": "",
          "type": "uint256"
        }
      ],
      "stateMutability": "view",
      "type": "function"
    },
    {
      "inputs": [
        {
          "internalType": "address",
          "name": "from",
          "type": "address"
        },
        {
          "internalType": "address",
          "name": "to",
          "type": "address"
        },
        {
          "internalType": "uint256",
          "name": "tokenId",
          "type": "uint256"
        }
      ],
      "name": "transferFrom",
      "outputs": [],
      "stateMutability": "nonpayable",
      "type": "function"
    },
    {
      "inputs": [
        {
          "internalType": "address",
          "name": "newOwner",
          "type": "address"
        }
      ],
      "name": "transferOwnership",
      "outputs": [],
      "stateMutability": "nonpayable",
      "type": "function"
    },
    {
      "inputs": [
        {
          "internalType": "uint256",
          "name": "_mintPrice",
          "type": "uint256"
        }
      ],
      "name": "setMintPrice",
      "outputs": [],
      "stateMutability": "nonpayable",
      "type": "function"
    },
    {
      "inputs": [
        {
          "internalType": "uint256",
          "name": "_maxMintAmount",
          "type": "uint256"
        }
      ],
      "name": "setMaxMintAmount",
      "outputs": [],
      "stateMutability": "nonpayable",
      "type": "function"
    },
    {
      "inputs": [],
      "name": "baseTokenURI",
      "outputs": [
        {
          "internalType": "string",
          "name": "",
          "type": "string"
        }
      ],
      "stateMutability": "view",
      "type": "function"
    },
    {
      "inputs": [
        {
          "internalType": "string",
          "name": "_baseExtension",
          "type": "string"
        }
      ],
      "name": "setBaseExtension",
      "outputs": [],
      "stateMutability": "nonpayable",
      "type": "function"
    },
    {
      "inputs": [
        {
          "internalType": "string",
          "name": "_baseUri",
          "type": "string"
        }
      ],
      "name": "_setBaseURI",
      "outputs": [],
      "stateMutability": "nonpayable",
      "type": "function"
    },
    {
      "inputs": [
        {
          "internalType": "bool",
          "name": "_isPublicMintEnabled",
          "type": "bool"
        }
      ],
      "name": "setIsPublicMintEnabled",
      "outputs": [],
      "stateMutability": "nonpayable",
      "type": "function"
    },
    {
      "inputs": [
        {
          "internalType": "uint256",
          "name": "tokenId",
          "type": "uint256"
        }
      ],
      "name": "tokenURI",
      "outputs": [
        {
          "internalType": "string",
          "name": "",
          "type": "string"
        }
      ],
      "stateMutability": "view",
      "type": "function"
    },
    {
      "inputs": [
        {
          "internalType": "uint256",
          "name": "quantity",
          "type": "uint256"
        }
      ],
      "name": "mint",
      "outputs": [],
      "stateMutability": "payable",
      "type": "function"
    }
  ],
  "bytecode": "0x60806040523480156200001157600080fd5b506040518060400160405280600881526020017f537469636b4d616e0000000000000000000000000000000000000000000000008152506040518060400160405280600381526020017f53544d00000000000000000000000000000000000000000000000000000000008152508160009080519060200190620000969291906200024e565b508060019080519060200190620000af9291906200024e565b505050620000d2620000c66200018060201b60201c565b6200018860201b60201c565b6000600d819055506103e8600e81905550670214e8348c4f0000600f8190555060146010819055506040518060400160405280600581526020017f2e6a736f6e000000000000000000000000000000000000000000000000000000815250600b9080519060200190620001479291906200024e565b506040518060600160405280603681526020016200425e60369139600c9080519060200190620001799291906200024e565b5062000363565b600033905090565b6000600a60009054906101000a900473ffffffffffffffffffffffffffffffffffffffff16905081600a60006101000a81548173ffffffffffffffffffffffffffffffffffffffff021916908373ffffffffffffffffffffffffffffffffffffffff1602179055508173ffffffffffffffffffffffffffffffffffffffff168173ffffffffffffffffffffffffffffffffffffffff167f8be0079c531659141344cd1fd0a4f28419497f9722a3daafe3b4186f6b6457e060405160405180910390a35050565b8280546200025c906200032d565b90600052602060002090601f016020900481019282620002805760008555620002cc565b82601f106200029b57805160ff1916838001178555620002cc565b82800160010185558215620002cc579182015b82811115620002cb578251825591602001919060010190620002ae565b5b509050620002db9190620002df565b5090565b5b80821115620002fa576000816000905550600101620002e0565b5090565b7f4e487b7100000000000000000000000000000000000000000000000000000000600052602260045260246000fd5b600060028204905060018216806200034657607f821691505b602082108114156200035d576200035c620002fe565b5b50919050565b613eeb80620003736000396000f3fe6080604052600436106101d85760003560e01c80636352211e11610102578063b88d4fde11610095578063da3ef23f11610064578063da3ef23f146106b1578063e985e9c5146106da578063f2fde38b14610717578063f4a0a52814610740576101d8565b8063b88d4fde146105f5578063c87b56dd1461061e578063d547cfb71461065b578063d5abeb0114610686576101d8565b80638da5cb5b116100d15780638da5cb5b1461055a57806395d89b4114610585578063a0712d68146105b0578063a22cb465146105cc576101d8565b80636352211e1461049e5780636817c76c146104db57806370a0823114610506578063715018a614610543576101d8565b80631908beb11161017a5780632f745c59116101495780632f745c59146103d257806331b5b9071461040f57806342842e0e146104385780634f6ccce714610461576101d8565b80631908beb11461032a5780632373ac2214610355578063239c70ae1461037e57806323b872dd146103a9576101d8565b8063081812fc116101b6578063081812fc14610270578063088a4ed0146102ad578063095ea7b3146102d657806318160ddd146102ff576101d8565b80630116bc2d146101dd57806301ffc9a71461020857806306fdde0314610245575b600080fd5b3480156101e957600080fd5b506101f2610769565b6040516101ff9190612876565b60405180910390f35b34801561021457600080fd5b5061022f600480360381019061022a91906128fd565b61077c565b60405161023c9190612876565b60405180910390f35b34801561025157600080fd5b5061025a6107f6565b60405161026791906129c3565b60405180910390f35b34801561027c57600080fd5b5061029760048036038101906102929190612a1b565b610888565b6040516102a49190612a89565b60405180910390f35b3480156102b957600080fd5b506102d460048036038101906102cf9190612a1b565b61090d565b005b3480156102e257600080fd5b506102fd60048036038101906102f89190612ad0565b610993565b005b34801561030b57600080fd5b50610314610aab565b6040516103219190612b1f565b60405180910390f35b34801561033657600080fd5b5061033f610ab8565b60405161034c9190612b1f565b60405180910390f35b34801561036157600080fd5b5061037c60048036038101906103779190612b66565b610abe565b005b34801561038a57600080fd5b50610393610b57565b6040516103a09190612b1f565b60405180910390f35b3480156103b557600080fd5b506103d060048036038101906103cb9190612b93565b610b5d565b005b3480156103de57600080fd5b506103f960048036038101906103f49190612ad0565b610bbd565b6040516104069190612b1f565b60405180910390f35b34801561041b57600080fd5b5061043660048036038101906104319190612d1b565b610c62565b005b34801561044457600080fd5b5061045f600480360381019061045a9190612b93565b610cf8565b005b34801561046d57600080fd5b5061048860048036038101906104839190612a1b565b610d18565b6040516104959190612b1f565b60405180910390f35b3480156104aa57600080fd5b506104c560048036038101906104c09190612a1b565b610d89565b6040516104d29190612a89565b60405180910390f35b3480156104e757600080fd5b506104f0610e3b565b6040516104fd9190612b1f565b60405180910390f35b34801561051257600080fd5b5061052d60048036038101906105289190612d64565b610e41565b60405161053a9190612b1f565b60405180910390f35b34801561054f57600080fd5b50610558610ef9565b005b34801561056657600080fd5b5061056f610f81565b60405161057c9190612a89565b60405180910390f35b34801561059157600080fd5b5061059a610fab565b6040516105a791906129c3565b60405180910390f35b6105ca60048036038101906105c59190612a1b565b61103d565b005b3480156105d857600080fd5b506105f360048036038101906105ee9190612d91565b611185565b005b34801561060157600080fd5b5061061c60048036038101906106179190612e72565b61119b565b005b34801561062a57600080fd5b5061064560048036038101906106409190612a1b565b6111fd565b60405161065291906129c3565b60405180910390f35b34801561066757600080fd5b506106706112a8565b60405161067d91906129c3565b60405180910390f35b34801561069257600080fd5b5061069b61133a565b6040516106a89190612b1f565b60405180910390f35b3480156106bd57600080fd5b506106d860048036038101906106d39190612d1b565b611340565b005b3480156106e657600080fd5b5061070160048036038101906106fc9190612ef5565b6113d6565b60405161070e9190612876565b60405180910390f35b34801561072357600080fd5b5061073e60048036038101906107399190612d64565b61146a565b005b34801561074c57600080fd5b5061076760048036038101906107629190612a1b565b611562565b005b601160009054906101000a900460ff1681565b60007f780e9d63000000000000000000000000000000000000000000000000000000007bffffffffffffffffffffffffffffffffffffffffffffffffffffffff1916827bffffffffffffffffffffffffffffffffffffffffffffffffffffffff191614806107ef57506107ee826115e8565b5b9050919050565b60606000805461080590612f64565b80601f016020809104026020016040519081016040528092919081815260200182805461083190612f64565b801561087e5780601f106108535761010080835404028352916020019161087e565b820191906000526020600020905b81548152906001019060200180831161086157829003601f168201915b5050505050905090565b6000610893826116ca565b6108d2576040517f08c379a00000000000000000000000000000000000000000000000000000000081526004016108c990613008565b60405180910390fd5b6004600083815260200190815260200160002060009054906101000a900473ffffffffffffffffffffffffffffffffffffffff169050919050565b610915611736565b73ffffffffffffffffffffffffffffffffffffffff16610933610f81565b73ffffffffffffffffffffffffffffffffffffffff1614610989576040517f08c379a000000000000000000000000000000000000000000000000000000000815260040161098090613074565b60405180910390fd5b8060108190555050565b600061099e82610d89565b90508073ffffffffffffffffffffffffffffffffffffffff168373ffffffffffffffffffffffffffffffffffffffff161415610a0f576040517f08c379a0000000000000000000000000000000000000000000000000000000008152600401610a0690613106565b60405180910390fd5b8073ffffffffffffffffffffffffffffffffffffffff16610a2e611736565b73ffffffffffffffffffffffffffffffffffffffff161480610a5d5750610a5c81610a57611736565b6113d6565b5b610a9c576040517f08c379a0000000000000000000000000000000000000000000000000000000008152600401610a9390613198565b60405180910390fd5b610aa6838361173e565b505050565b6000600880549050905090565b600d5481565b610ac6611736565b73ffffffffffffffffffffffffffffffffffffffff16610ae4610f81565b73ffffffffffffffffffffffffffffffffffffffff1614610b3a576040517f08c379a0000000000000000000000000000000000000000000000000000000008152600401610b3190613074565b60405180910390fd5b80601160006101000a81548160ff02191690831515021790555050565b60105481565b610b6e610b68611736565b826117f7565b610bad576040517f08c379a0000000000000000000000000000000000000000000000000000000008152600401610ba49061322a565b60405180910390fd5b610bb88383836118d5565b505050565b6000610bc883610e41565b8210610c09576040517f08c379a0000000000000000000000000000000000000000000000000000000008152600401610c00906132bc565b60405180910390fd5b600660008473ffffffffffffffffffffffffffffffffffffffff1673ffffffffffffffffffffffffffffffffffffffff168152602001908152602001600020600083815260200190815260200160002054905092915050565b610c6a611736565b73ffffffffffffffffffffffffffffffffffffffff16610c88610f81565b73ffffffffffffffffffffffffffffffffffffffff1614610cde576040517f08c379a0000000000000000000000000000000000000000000000000000000008152600401610cd590613074565b60405180910390fd5b80600c9080519060200190610cf49291906127b8565b5050565b610d138383836040518060200160405280600081525061119b565b505050565b6000610d22610aab565b8210610d63576040517f08c379a0000000000000000000000000000000000000000000000000000000008152600401610d5a9061334e565b60405180910390fd5b60088281548110610d7757610d7661336e565b5b90600052602060002001549050919050565b6000806002600084815260200190815260200160002060009054906101000a900473ffffffffffffffffffffffffffffffffffffffff169050600073ffffffffffffffffffffffffffffffffffffffff168173ffffffffffffffffffffffffffffffffffffffff161415610e32576040517f08c379a0000000000000000000000000000000000000000000000000000000008152600401610e299061340f565b60405180910390fd5b80915050919050565b600f5481565b60008073ffffffffffffffffffffffffffffffffffffffff168273ffffffffffffffffffffffffffffffffffffffff161415610eb2576040517f08c379a0000000000000000000000000000000000000000000000000000000008152600401610ea9906134a1565b60405180910390fd5b600360008373ffffffffffffffffffffffffffffffffffffffff1673ffffffffffffffffffffffffffffffffffffffff168152602001908152602001600020549050919050565b610f01611736565b73ffffffffffffffffffffffffffffffffffffffff16610f1f610f81565b73ffffffffffffffffffffffffffffffffffffffff1614610f75576040517f08c379a0000000000000000000000000000000000000000000000000000000008152600401610f6c90613074565b60405180910390fd5b610f7f6000611b3c565b565b6000600a60009054906101000a900473ffffffffffffffffffffffffffffffffffffffff16905090565b606060018054610fba90612f64565b80601f0160208091040260200160405190810160405280929190818152602001828054610fe690612f64565b80156110335780601f1061100857610100808354040283529160200191611033565b820191906000526020600020905b81548152906001019060200180831161101657829003601f168201915b5050505050905090565b601160009054906101000a900460ff1661108c576040517f08c379a00000000000000000000000000000000000000000000000000000000081526004016110839061350d565b60405180910390fd5b600f548161109a919061355c565b34146110db576040517f08c379a00000000000000000000000000000000000000000000000000000000081526004016110d290613602565b60405180910390fd5b600e5481600d546110ec9190613622565b111561112d576040517f08c379a0000000000000000000000000000000000000000000000000000000008152600401611124906136c4565b60405180910390fd5b60005b818110156111815760006001600d546111499190613622565b9050600d600081548092919061115e906136e4565b919050555061116d3382611c02565b508080611179906136e4565b915050611130565b5050565b611197611190611736565b8383611c20565b5050565b6111ac6111a6611736565b836117f7565b6111eb576040517f08c379a00000000000000000000000000000000000000000000000000000000081526004016111e29061322a565b60405180910390fd5b6111f784848484611d8d565b50505050565b6060611208826116ca565b611247576040517f08c379a000000000000000000000000000000000000000000000000000000000815260040161123e9061379f565b60405180910390fd5b6000600c805461125690612f64565b90501161127257604051806020016040528060008152506112a1565b600c61127d83611de9565b600b6040516020016112919392919061388f565b6040516020818303038152906040525b9050919050565b6060600c80546112b790612f64565b80601f01602080910402602001604051908101604052809291908181526020018280546112e390612f64565b80156113305780601f1061130557610100808354040283529160200191611330565b820191906000526020600020905b81548152906001019060200180831161131357829003601f168201915b5050505050905090565b600e5481565b611348611736565b73ffffffffffffffffffffffffffffffffffffffff16611366610f81565b73ffffffffffffffffffffffffffffffffffffffff16146113bc576040517f08c379a00000000000000000000000000000000000000000000000000000000081526004016113b390613074565b60405180910390fd5b80600b90805190602001906113d29291906127b8565b5050565b6000600560008473ffffffffffffffffffffffffffffffffffffffff1673ffffffffffffffffffffffffffffffffffffffff16815260200190815260200160002060008373ffffffffffffffffffffffffffffffffffffffff1673ffffffffffffffffffffffffffffffffffffffff16815260200190815260200160002060009054906101000a900460ff16905092915050565b611472611736565b73ffffffffffffffffffffffffffffffffffffffff16611490610f81565b73ffffffffffffffffffffffffffffffffffffffff16146114e6576040517f08c379a00000000000000000000000000000000000000000000000000000000081526004016114dd90613074565b60405180910390fd5b600073ffffffffffffffffffffffffffffffffffffffff168173ffffffffffffffffffffffffffffffffffffffff161415611556576040517f08c379a000000000000000000000000000000000000000000000000000000000815260040161154d90613932565b60405180910390fd5b61155f81611b3c565b50565b61156a611736565b73ffffffffffffffffffffffffffffffffffffffff16611588610f81565b73ffffffffffffffffffffffffffffffffffffffff16146115de576040517f08c379a00000000000000000000000000000000000000000000000000000000081526004016115d590613074565b60405180910390fd5b80600f8190555050565b60007f80ac58cd000000000000000000000000000000000000000000000000000000007bffffffffffffffffffffffffffffffffffffffffffffffffffffffff1916827bffffffffffffffffffffffffffffffffffffffffffffffffffffffff191614806116b357507f5b5e139f000000000000000000000000000000000000000000000000000000007bffffffffffffffffffffffffffffffffffffffffffffffffffffffff1916827bffffffffffffffffffffffffffffffffffffffffffffffffffffffff1916145b806116c357506116c282611f4a565b5b9050919050565b60008073ffffffffffffffffffffffffffffffffffffffff166002600084815260200190815260200160002060009054906101000a900473ffffffffffffffffffffffffffffffffffffffff1673ffffffffffffffffffffffffffffffffffffffff1614159050919050565b600033905090565b816004600083815260200190815260200160002060006101000a81548173ffffffffffffffffffffffffffffffffffffffff021916908373ffffffffffffffffffffffffffffffffffffffff160217905550808273ffffffffffffffffffffffffffffffffffffffff166117b183610d89565b73ffffffffffffffffffffffffffffffffffffffff167f8c5be1e5ebec7d5bd14f71427d1e84f3dd0314c0f7b2291e5b200ac8c7c3b92560405160405180910390a45050565b6000611802826116ca565b611841576040517f08c379a0000000000000000000000000000000000000000000000000000000008152600401611838906139c4565b60405180910390fd5b600061184c83610d89565b90508073ffffffffffffffffffffffffffffffffffffffff168473ffffffffffffffffffffffffffffffffffffffff1614806118bb57508373ffffffffffffffffffffffffffffffffffffffff166118a384610888565b73ffffffffffffffffffffffffffffffffffffffff16145b806118cc57506118cb81856113d6565b5b91505092915050565b8273ffffffffffffffffffffffffffffffffffffffff166118f582610d89565b73ffffffffffffffffffffffffffffffffffffffff161461194b576040517f08c379a000000000000000000000000000000000000000000000000000000000815260040161194290613a56565b60405180910390fd5b600073ffffffffffffffffffffffffffffffffffffffff168273ffffffffffffffffffffffffffffffffffffffff1614156119bb576040517f08c379a00000000000000000000000000000000000000000000000000000000081526004016119b290613ae8565b60405180910390fd5b6119c6838383611fb4565b6119d160008261173e565b6001600360008573ffffffffffffffffffffffffffffffffffffffff1673ffffffffffffffffffffffffffffffffffffffff1681526020019081526020016000206000828254611a219190613b08565b925050819055506001600360008473ffffffffffffffffffffffffffffffffffffffff1673ffffffffffffffffffffffffffffffffffffffff1681526020019081526020016000206000828254611a789190613622565b92505081905550816002600083815260200190815260200160002060006101000a81548173ffffffffffffffffffffffffffffffffffffffff021916908373ffffffffffffffffffffffffffffffffffffffff160217905550808273ffffffffffffffffffffffffffffffffffffffff168473ffffffffffffffffffffffffffffffffffffffff167fddf252ad1be2c89b69c2b068fc378daa952ba7f163c4a11628f55a4df523b3ef60405160405180910390a4611b378383836120c8565b505050565b6000600a60009054906101000a900473ffffffffffffffffffffffffffffffffffffffff16905081600a60006101000a81548173ffffffffffffffffffffffffffffffffffffffff021916908373ffffffffffffffffffffffffffffffffffffffff1602179055508173ffffffffffffffffffffffffffffffffffffffff168173ffffffffffffffffffffffffffffffffffffffff167f8be0079c531659141344cd1fd0a4f28419497f9722a3daafe3b4186f6b6457e060405160405180910390a35050565b611c1c8282604051806020016040528060008152506120cd565b5050565b8173ffffffffffffffffffffffffffffffffffffffff168373ffffffffffffffffffffffffffffffffffffffff161415611c8f576040517f08c379a0000000000000000000000000000000000000000000000000000000008152600401611c8690613b88565b60405180910390fd5b80600560008573ffffffffffffffffffffffffffffffffffffffff1673ffffffffffffffffffffffffffffffffffffffff16815260200190815260200160002060008473ffffffffffffffffffffffffffffffffffffffff1673ffffffffffffffffffffffffffffffffffffffff16815260200190815260200160002060006101000a81548160ff0219169083151502179055508173ffffffffffffffffffffffffffffffffffffffff168373ffffffffffffffffffffffffffffffffffffffff167f17307eab39ab6107e8899845ad3d59bd9653f200f220920489ca2b5937696c3183604051611d809190612876565b60405180910390a3505050565b611d988484846118d5565b611da484848484612128565b611de3576040517f08c379a0000000000000000000000000000000000000000000000000000000008152600401611dda90613c1a565b60405180910390fd5b50505050565b60606000821415611e31576040518060400160405280600181526020017f30000000000000000000000000000000000000000000000000000000000000008152509050611f45565b600082905060005b60008214611e63578080611e4c906136e4565b915050600a82611e5c9190613c69565b9150611e39565b60008167ffffffffffffffff811115611e7f57611e7e612bf0565b5b6040519080825280601f01601f191660200182016040528015611eb15781602001600182028036833780820191505090505b5090505b60008514611f3e57600182611eca9190613b08565b9150600a85611ed99190613c9a565b6030611ee59190613622565b60f81b818381518110611efb57611efa61336e565b5b60200101907effffffffffffffffffffffffffffffffffffffffffffffffffffffffffffff1916908160001a905350600a85611f379190613c69565b9450611eb5565b8093505050505b919050565b60007f01ffc9a7000000000000000000000000000000000000000000000000000000007bffffffffffffffffffffffffffffffffffffffffffffffffffffffff1916827bffffffffffffffffffffffffffffffffffffffffffffffffffffffff1916149050919050565b611fbf8383836122b0565b600073ffffffffffffffffffffffffffffffffffffffff168373ffffffffffffffffffffffffffffffffffffffff16141561200257611ffd816122b5565b612041565b8173ffffffffffffffffffffffffffffffffffffffff168373ffffffffffffffffffffffffffffffffffffffff16146120405761203f83826122fe565b5b5b600073ffffffffffffffffffffffffffffffffffffffff168273ffffffffffffffffffffffffffffffffffffffff1614156120845761207f8161246b565b6120c3565b8273ffffffffffffffffffffffffffffffffffffffff168273ffffffffffffffffffffffffffffffffffffffff16146120c2576120c1828261253c565b5b5b505050565b505050565b6120d783836125bb565b6120e46000848484612128565b612123576040517f08c379a000000000000000000000000000000000000000000000000000000000815260040161211a90613c1a565b60405180910390fd5b505050565b60006121498473ffffffffffffffffffffffffffffffffffffffff16612795565b156122a3578373ffffffffffffffffffffffffffffffffffffffff1663150b7a02612172611736565b8786866040518563ffffffff1660e01b81526004016121949493929190613d20565b6020604051808303816000875af19250505080156121d057506040513d601f19601f820116820180604052508101906121cd9190613d81565b60015b612253573d8060008114612200576040519150601f19603f3d011682016040523d82523d6000602084013e612205565b606091505b5060008151141561224b576040517f08c379a000000000000000000000000000000000000000000000000000000000815260040161224290613c1a565b60405180910390fd5b805181602001fd5b63150b7a0260e01b7bffffffffffffffffffffffffffffffffffffffffffffffffffffffff1916817bffffffffffffffffffffffffffffffffffffffffffffffffffffffff1916149150506122a8565b600190505b949350505050565b505050565b6008805490506009600083815260200190815260200160002081905550600881908060018154018082558091505060019003906000526020600020016000909190919091505550565b6000600161230b84610e41565b6123159190613b08565b90506000600760008481526020019081526020016000205490508181146123fa576000600660008673ffffffffffffffffffffffffffffffffffffffff1673ffffffffffffffffffffffffffffffffffffffff168152602001908152602001600020600084815260200190815260200160002054905080600660008773ffffffffffffffffffffffffffffffffffffffff1673ffffffffffffffffffffffffffffffffffffffff168152602001908152602001600020600084815260200190815260200160002081905550816007600083815260200190815260200160002081905550505b6007600084815260200190815260200160002060009055600660008573ffffffffffffffffffffffffffffffffffffffff1673ffffffffffffffffffffffffffffffffffffffff16815260200190815260200160002060008381526020019081526020016000206000905550505050565b6000600160088054905061247f9190613b08565b90506000600960008481526020019081526020016000205490506000600883815481106124af576124ae61336e565b5b9060005260206000200154905080600883815481106124d1576124d061336e565b5b9060005260206000200181905550816009600083815260200190815260200160002081905550600960008581526020019081526020016000206000905560088054806125205761251f613dae565b5b6001900381819060005260206000200160009055905550505050565b600061254783610e41565b905081600660008573ffffffffffffffffffffffffffffffffffffffff1673ffffffffffffffffffffffffffffffffffffffff168152602001908152602001600020600083815260200190815260200160002081905550806007600084815260200190815260200160002081905550505050565b600073ffffffffffffffffffffffffffffffffffffffff168273ffffffffffffffffffffffffffffffffffffffff16141561262b576040517f08c379a000000000000000000000000000000000000000000000000000000000815260040161262290613e29565b60405180910390fd5b612634816116ca565b15612674576040517f08c379a000000000000000000000000000000000000000000000000000000000815260040161266b90613e95565b60405180910390fd5b61268060008383611fb4565b6001600360008473ffffffffffffffffffffffffffffffffffffffff1673ffffffffffffffffffffffffffffffffffffffff16815260200190815260200160002060008282546126d09190613622565b92505081905550816002600083815260200190815260200160002060006101000a81548173ffffffffffffffffffffffffffffffffffffffff021916908373ffffffffffffffffffffffffffffffffffffffff160217905550808273ffffffffffffffffffffffffffffffffffffffff16600073ffffffffffffffffffffffffffffffffffffffff167fddf252ad1be2c89b69c2b068fc378daa952ba7f163c4a11628f55a4df523b3ef60405160405180910390a4612791600083836120c8565b5050565b6000808273ffffffffffffffffffffffffffffffffffffffff163b119050919050565b8280546127c490612f64565b90600052602060002090601f0160209004810192826127e6576000855561282d565b82601f106127ff57805160ff191683800117855561282d565b8280016001018555821561282d579182015b8281111561282c578251825591602001919060010190612811565b5b50905061283a919061283e565b5090565b5b8082111561285757600081600090555060010161283f565b5090565b60008115159050919050565b6128708161285b565b82525050565b600060208201905061288b6000830184612867565b92915050565b6000604051905090565b600080fd5b600080fd5b60007fffffffff0000000000000000000000000000000000000000000000000000000082169050919050565b6128da816128a5565b81146128e557600080fd5b50565b6000813590506128f7816128d1565b92915050565b6000602082840312156129135761291261289b565b5b6000612921848285016128e8565b91505092915050565b600081519050919050565b600082825260208201905092915050565b60005b83811015612964578082015181840152602081019050612949565b83811115612973576000848401525b50505050565b6000601f19601f8301169050919050565b60006129958261292a565b61299f8185612935565b93506129af818560208601612946565b6129b881612979565b840191505092915050565b600060208201905081810360008301526129dd818461298a565b905092915050565b6000819050919050565b6129f8816129e5565b8114612a0357600080fd5b50565b600081359050612a15816129ef565b92915050565b600060208284031215612a3157612a3061289b565b5b6000612a3f84828501612a06565b91505092915050565b600073ffffffffffffffffffffffffffffffffffffffff82169050919050565b6000612a7382612a48565b9050919050565b612a8381612a68565b82525050565b6000602082019050612a9e6000830184612a7a565b92915050565b612aad81612a68565b8114612ab857600080fd5b50565b600081359050612aca81612aa4565b92915050565b60008060408385031215612ae757612ae661289b565b5b6000612af585828601612abb565b9250506020612b0685828601612a06565b9150509250929050565b612b19816129e5565b82525050565b6000602082019050612b346000830184612b10565b92915050565b612b438161285b565b8114612b4e57600080fd5b50565b600081359050612b6081612b3a565b92915050565b600060208284031215612b7c57612b7b61289b565b5b6000612b8a84828501612b51565b91505092915050565b600080600060608486031215612bac57612bab61289b565b5b6000612bba86828701612abb565b9350506020612bcb86828701612abb565b9250506040612bdc86828701612a06565b9150509250925092565b600080fd5b600080fd5b7f4e487b7100000000000000000000000000000000000000000000000000000000600052604160045260246000fd5b612c2882612979565b810181811067ffffffffffffffff82111715612c4757612c46612bf0565b5b80604052505050565b6000612c5a612891565b9050612c668282612c1f565b919050565b600067ffffffffffffffff821115612c8657612c85612bf0565b5b612c8f82612979565b9050602081019050919050565b82818337600083830152505050565b6000612cbe612cb984612c6b565b612c50565b905082815260208101848484011115612cda57612cd9612beb565b5b612ce5848285612c9c565b509392505050565b600082601f830112612d0257612d01612be6565b5b8135612d12848260208601612cab565b91505092915050565b600060208284031215612d3157612d3061289b565b5b600082013567ffffffffffffffff811115612d4f57612d4e6128a0565b5b612d5b84828501612ced565b91505092915050565b600060208284031215612d7a57612d7961289b565b5b6000612d8884828501612abb565b91505092915050565b60008060408385031215612da857612da761289b565b5b6000612db685828601612abb565b9250506020612dc785828601612b51565b9150509250929050565b600067ffffffffffffffff821115612dec57612deb612bf0565b5b612df582612979565b9050602081019050919050565b6000612e15612e1084612dd1565b612c50565b905082815260208101848484011115612e3157612e30612beb565b5b612e3c848285612c9c565b509392505050565b600082601f830112612e5957612e58612be6565b5b8135612e69848260208601612e02565b91505092915050565b60008060008060808587031215612e8c57612e8b61289b565b5b6000612e9a87828801612abb565b9450506020612eab87828801612abb565b9350506040612ebc87828801612a06565b925050606085013567ffffffffffffffff811115612edd57612edc6128a0565b5b612ee987828801612e44565b91505092959194509250565b60008060408385031215612f0c57612f0b61289b565b5b6000612f1a85828601612abb565b9250506020612f2b85828601612abb565b9150509250929050565b7f4e487b7100000000000000000000000000000000000000000000000000000000600052602260045260246000fd5b60006002820490506001821680612f7c57607f821691505b60208210811415612f9057612f8f612f35565b5b50919050565b7f4552433732313a20617070726f76656420717565727920666f72206e6f6e657860008201527f697374656e7420746f6b656e0000000000000000000000000000000000000000602082015250565b6000612ff2602c83612935565b9150612ffd82612f96565b604082019050919050565b6000602082019050818103600083015261302181612fe5565b9050919050565b7f4f776e61626c653a2063616c6c6572206973206e6f7420746865206f776e6572600082015250565b600061305e602083612935565b915061306982613028565b602082019050919050565b6000602082019050818103600083015261308d81613051565b9050919050565b7f4552433732313a20617070726f76616c20746f2063757272656e74206f776e6560008201527f7200000000000000000000000000000000000000000000000000000000000000602082015250565b60006130f0602183612935565b91506130fb82613094565b604082019050919050565b6000602082019050818103600083015261311f816130e3565b9050919050565b7f4552433732313a20617070726f76652063616c6c6572206973206e6f74206f7760008201527f6e6572206e6f7220617070726f76656420666f7220616c6c0000000000000000602082015250565b6000613182603883612935565b915061318d82613126565b604082019050919050565b600060208201905081810360008301526131b181613175565b9050919050565b7f4552433732313a207472616e736665722063616c6c6572206973206e6f74206f60008201527f776e6572206e6f7220617070726f766564000000000000000000000000000000602082015250565b6000613214603183612935565b915061321f826131b8565b604082019050919050565b6000602082019050818103600083015261324381613207565b9050919050565b7f455243373231456e756d657261626c653a206f776e657220696e646578206f7560008201527f74206f6620626f756e6473000000000000000000000000000000000000000000602082015250565b60006132a6602b83612935565b91506132b18261324a565b604082019050919050565b600060208201905081810360008301526132d581613299565b9050919050565b7f455243373231456e756d657261626c653a20676c6f62616c20696e646578206f60008201527f7574206f6620626f756e64730000000000000000000000000000000000000000602082015250565b6000613338602c83612935565b9150613343826132dc565b604082019050919050565b600060208201905081810360008301526133678161332b565b9050919050565b7f4e487b7100000000000000000000000000000000000000000000000000000000600052603260045260246000fd5b7f4552433732313a206f776e657220717565727920666f72206e6f6e657869737460008201527f656e7420746f6b656e0000000000000000000000000000000000000000000000602082015250565b60006133f9602983612935565b91506134048261339d565b604082019050919050565b60006020820190508181036000830152613428816133ec565b9050919050565b7f4552433732313a2062616c616e636520717565727920666f7220746865207a6560008201527f726f206164647265737300000000000000000000000000000000000000000000602082015250565b600061348b602a83612935565b91506134968261342f565b604082019050919050565b600060208201905081810360008301526134ba8161347e565b9050919050565b7f4d696e74696e67206973206e6f7420656e61626c656400000000000000000000600082015250565b60006134f7601683612935565b9150613502826134c1565b602082019050919050565b60006020820190508181036000830152613526816134ea565b9050919050565b7f4e487b7100000000000000000000000000000000000000000000000000000000600052601160045260246000fd5b6000613567826129e5565b9150613572836129e5565b9250817fffffffffffffffffffffffffffffffffffffffffffffffffffffffffffffffff04831182151516156135ab576135aa61352d565b5b828202905092915050565b7f57726f6e67206d696e742076616c75652073656e740000000000000000000000600082015250565b60006135ec601583612935565b91506135f7826135b6565b602082019050919050565b6000602082019050818103600083015261361b816135df565b9050919050565b600061362d826129e5565b9150613638836129e5565b9250827fffffffffffffffffffffffffffffffffffffffffffffffffffffffffffffffff0382111561366d5761366c61352d565b5b828201905092915050565b7f536f6c64206f7574000000000000000000000000000000000000000000000000600082015250565b60006136ae600883612935565b91506136b982613678565b602082019050919050565b600060208201905081810360008301526136dd816136a1565b9050919050565b60006136ef826129e5565b91507fffffffffffffffffffffffffffffffffffffffffffffffffffffffffffffffff8214156137225761372161352d565b5b600182019050919050565b7f4552433732314d657461646174613a2055524920717565727920666f72206e6f60008201527f6e6578697374656e7420746f6b656e0000000000000000000000000000000000602082015250565b6000613789602f83612935565b91506137948261372d565b604082019050919050565b600060208201905081810360008301526137b88161377c565b9050919050565b600081905092915050565b60008190508160005260206000209050919050565b600081546137ec81612f64565b6137f681866137bf565b94506001821660008114613811576001811461382257613855565b60ff19831686528186019350613855565b61382b856137ca565b60005b8381101561384d5781548189015260018201915060208101905061382e565b838801955050505b50505092915050565b60006138698261292a565b61387381856137bf565b9350613883818560208601612946565b80840191505092915050565b600061389b82866137df565b91506138a7828561385e565b91506138b382846137df565b9150819050949350505050565b7f4f776e61626c653a206e6577206f776e657220697320746865207a65726f206160008201527f6464726573730000000000000000000000000000000000000000000000000000602082015250565b600061391c602683612935565b9150613927826138c0565b604082019050919050565b6000602082019050818103600083015261394b8161390f565b9050919050565b7f4552433732313a206f70657261746f7220717565727920666f72206e6f6e657860008201527f697374656e7420746f6b656e0000000000000000000000000000000000000000602082015250565b60006139ae602c83612935565b91506139b982613952565b604082019050919050565b600060208201905081810360008301526139dd816139a1565b9050919050565b7f4552433732313a207472616e736665722066726f6d20696e636f72726563742060008201527f6f776e6572000000000000000000000000000000000000000000000000000000602082015250565b6000613a40602583612935565b9150613a4b826139e4565b604082019050919050565b60006020820190508181036000830152613a6f81613a33565b9050919050565b7f4552433732313a207472616e7366657220746f20746865207a65726f2061646460008201527f7265737300000000000000000000000000000000000000000000000000000000602082015250565b6000613ad2602483612935565b9150613add82613a76565b604082019050919050565b60006020820190508181036000830152613b0181613ac5565b9050919050565b6000613b13826129e5565b9150613b1e836129e5565b925082821015613b3157613b3061352d565b5b828203905092915050565b7f4552433732313a20617070726f766520746f2063616c6c657200000000000000600082015250565b6000613b72601983612935565b9150613b7d82613b3c565b602082019050919050565b60006020820190508181036000830152613ba181613b65565b9050919050565b7f4552433732313a207472616e7366657220746f206e6f6e20455243373231526560008201527f63656976657220696d706c656d656e7465720000000000000000000000000000602082015250565b6000613c04603283612935565b9150613c0f82613ba8565b604082019050919050565b60006020820190508181036000830152613c3381613bf7565b9050919050565b7f4e487b7100000000000000000000000000000000000000000000000000000000600052601260045260246000fd5b6000613c74826129e5565b9150613c7f836129e5565b925082613c8f57613c8e613c3a565b5b828204905092915050565b6000613ca5826129e5565b9150613cb0836129e5565b925082613cc057613cbf613c3a565b5b828206905092915050565b600081519050919050565b600082825260208201905092915050565b6000613cf282613ccb565b613cfc8185613cd6565b9350613d0c818560208601612946565b613d1581612979565b840191505092915050565b6000608082019050613d356000830187612a7a565b613d426020830186612a7a565b613d4f6040830185612b10565b8181036060830152613d618184613ce7565b905095945050505050565b600081519050613d7b816128d1565b92915050565b600060208284031215613d9757613d9661289b565b5b6000613da584828501613d6c565b91505092915050565b7f4e487b7100000000000000000000000000000000000000000000000000000000600052603160045260246000fd5b7f4552433732313a206d696e7420746f20746865207a65726f2061646472657373600082015250565b6000613e13602083612935565b9150613e1e82613ddd565b602082019050919050565b60006020820190508181036000830152613e4281613e06565b9050919050565b7f4552433732313a20746f6b656e20616c7265616479206d696e74656400000000600082015250565b6000613e7f601c83612935565b9150613e8a82613e49565b602082019050919050565b60006020820190508181036000830152613eae81613e72565b905091905056fea26469706673582212203e702ae5709aedf76d4c6dc98020cfb885bcb1474be18cefd8e5d44340c34f3564736f6c634300080b0033697066733a2f2f516d4e53626274615a31426e6969356b4852663733774e38736a4a62527468487966737046436f77743642524e482f",
  "immutableReferences": {},
  "source": "// SPDX-License-Identifier: MIT\r\npragma solidity >=0.4.22 <0.9.0;\r\n\r\nimport \"@openzeppelin/contracts/token/ERC721/extensions/ERC721Enumerable.sol\";\r\nimport \"@openzeppelin/contracts/utils/Strings.sol\";\r\nimport \"@openzeppelin/contracts/access/Ownable.sol\";\r\n\r\n\r\ncontract StickMan is ERC721Enumerable, Ownable {\r\n    using Strings for uint256;\r\n\r\n    string private baseExtension;       // Base Extension of NFT\r\n    string private baseURI;             // Base URL of NFT Data\r\n  \r\n    uint256 public totalCurrentSupply;  // Current Amount of NFTS Minted\r\n    uint256 public maxSupply;           // Total Number of NFTs\r\n    uint256 public mintPrice;           // Price to mint an NFT\r\n    uint256 public maxMintAmount;       // Maximum Ammount a wallet can hold\r\n    bool public isPublicMintEnabled;    // Check if Users can mint\r\n\r\n\r\n    constructor()ERC721(\"StickMan\",\"STM\"){\r\n        totalCurrentSupply = 0;\r\n        maxSupply = 1000;\r\n        mintPrice = 0.15 ether;\r\n        maxMintAmount = 20;\r\n        baseExtension = \".json\";\r\n        baseURI = 'ipfs://QmNSbbtaZ1Bnii5kHRf73wN8sjJbRthHyfspFCowt6BRNH/';\r\n    }\r\n\r\n    // Set the Minting Price\r\n    function setMintPrice(uint256 _mintPrice) external onlyOwner {\r\n        mintPrice = _mintPrice;\r\n    }\r\n\r\n    // Set Maximimum ammount a wallet can hold\r\n    function setMaxMintAmount(uint256 _maxMintAmount) external onlyOwner {\r\n        maxMintAmount = _maxMintAmount;\r\n    }\r\n\r\n    function baseTokenURI() public view returns (string memory) {\r\n        return baseURI;\r\n    }\r\n\r\n    // Set Base Extension\r\n    function setBaseExtension(string memory _baseExtension) external onlyOwner {\r\n        baseExtension = _baseExtension;\r\n    }\r\n\r\n    // Internal function to set base_uri\r\n    function _setBaseURI(string memory _baseUri) external onlyOwner {\r\n        baseURI = _baseUri;\r\n    }\r\n\r\n    // Create function to enable/disable minting\r\n    function setIsPublicMintEnabled(bool _isPublicMintEnabled) external onlyOwner {\r\n        isPublicMintEnabled = _isPublicMintEnabled;\r\n    }\r\n\r\n    // Override tokenURI to include baseExtension\r\n    // TODO: Remove this an change it directly from the contract\r\n    function tokenURI(uint256 tokenId) public view virtual override returns (string memory) {\r\n        require(_exists(tokenId), \"ERC721Metadata: URI query for nonexistent token\");\r\n\r\n        return bytes(baseURI).length > 0 ? string(abi.encodePacked(baseURI, tokenId.toString(), baseExtension)) : \"\";\r\n    }\r\n\r\n    // Override get _baseURI to impliment tokenURI concatination in ERC721\r\n    // TODO: Remove this an change it directly from the contract\r\n    function _baseURI() internal view virtual override returns (string memory) {\r\n        return baseURI;\r\n    }\r\n\r\n    // Create Minting Function\r\n    function mint(uint256 quantity) public payable {\r\n        require(isPublicMintEnabled,'Minting is not enabled');\r\n        require(msg.value == quantity * mintPrice, 'Wrong mint value sent');\r\n        require(totalCurrentSupply + quantity <= maxSupply, 'Sold out');\r\n        //TODO:Set Max per wallet?\r\n        \r\n        // Mint the token\r\n        for (uint256 i=0;i < quantity;i++){\r\n            uint256 newTokenId = totalCurrentSupply + 1;\r\n            totalCurrentSupply++;\r\n            _safeMint(msg.sender, newTokenId);\r\n        }\r\n    }\r\n}",
  "sourcePath": "D:\\project\\minting\\src\\contracts\\StickMan.sol",
  "compiler": {
    "name": "solc",
    "version": "0.8.11+commit.d7f03943.Emscripten.clang"
  },
  "schemaVersion": "3.4.4",
  "updatedAt": "2022-04-04T11:00:53.628Z",
  "devdoc": {
    "kind": "dev",
    "methods": {
      "approve(address,uint256)": {
        "details": "See {IERC721-approve}."
      },
      "balanceOf(address)": {
        "details": "See {IERC721-balanceOf}."
      },
      "getApproved(uint256)": {
        "details": "See {IERC721-getApproved}."
      },
      "isApprovedForAll(address,address)": {
        "details": "See {IERC721-isApprovedForAll}."
      },
      "name()": {
        "details": "See {IERC721Metadata-name}."
      },
      "owner()": {
        "details": "Returns the address of the current owner."
      },
      "ownerOf(uint256)": {
        "details": "See {IERC721-ownerOf}."
      },
      "renounceOwnership()": {
        "details": "Leaves the contract without owner. It will not be possible to call `onlyOwner` functions anymore. Can only be called by the current owner. NOTE: Renouncing ownership will leave the contract without an owner, thereby removing any functionality that is only available to the owner."
      },
      "safeTransferFrom(address,address,uint256)": {
        "details": "See {IERC721-safeTransferFrom}."
      },
      "safeTransferFrom(address,address,uint256,bytes)": {
        "details": "See {IERC721-safeTransferFrom}."
      },
      "setApprovalForAll(address,bool)": {
        "details": "See {IERC721-setApprovalForAll}."
      },
      "supportsInterface(bytes4)": {
        "details": "See {IERC165-supportsInterface}."
      },
      "symbol()": {
        "details": "See {IERC721Metadata-symbol}."
      },
      "tokenByIndex(uint256)": {
        "details": "See {IERC721Enumerable-tokenByIndex}."
      },
      "tokenOfOwnerByIndex(address,uint256)": {
        "details": "See {IERC721Enumerable-tokenOfOwnerByIndex}."
      },
      "tokenURI(uint256)": {
        "details": "See {IERC721Metadata-tokenURI}."
      },
      "totalSupply()": {
        "details": "See {IERC721Enumerable-totalSupply}."
      },
      "transferFrom(address,address,uint256)": {
        "details": "See {IERC721-transferFrom}."
      },
      "transferOwnership(address)": {
        "details": "Transfers ownership of the contract to a new account (`newOwner`). Can only be called by the current owner."
      }
    },
    "version": 1
  },
  "userdoc": {
    "kind": "user",
    "methods": {},
    "version": 1
  }
}